:0100000011EE
:0100010011ED
:0100020011EC
:0100030011EB
:0100040011EA
:0100050011E9
:0100060011E8
:0100070011E7
:0100080000F7
:0100090011E5
:01000A0011E4
:01000B0011E3
:01000C0011E2
:01000D0011E1
:01000E0011E0
:01000F0011DF
:0100100000EF
:0100110000EE
:0100120011DC
:0100130011DB
:0100140011DA
:0100150011D9
:0100160011D8
:0100170011D7
:0100180000E7
:0100190000E6
:01001A0000E5
:01001B0011D3
:01001C0011D2
:01001D0011D1
:01001E0011D0
:01001F0011CF
:0100200000DF
:0100210000DE
:0100220000DD
:0100230000DC
:0100240011CA
:0100250011C9
:0100260011C8
:0100270011C7
:0100280000D7
:0100290000D6
:01002A0000D5
:01002B0000D4
:01002C0000D3
:01002D0011C1
:01002E0011C0
:01002F0011BF
:0100300000CF
:0100310000CE
:0100320000CD
:0100330000CC
:0100340000CB
:0100350000CA
:0100360011B8
:0100370011B7
:0100380000C7
:0100390000C6
:01003A0000C5
:01003B0000C4
:01003C0000C3
:01003D0000C2
:01003E0000C1
:01003F0011AF
:0100400011AE
:0100410011AD
:0100420011AC
:0100430011AB
:0100440011AA
:0100450011A9
:0100460011A8
:0100470011A7
:0100480000B7
:0100490011A5
:01004A0011A4
:01004B0011A3
:01004C0011A2
:01004D0011A1
:01004E0011A0
:01004F00119F
:0100500000AF
:0100510000AE
:01005200119C
:01005300119B
:01005400119A
:010055001199
:010056001198
:010057001197
:0100580000A7
:0100590000A6
:01005A0000A5
:01005B001193
:01005C001192
:01005D001191
:01005E001190
:01005F00118F
:01006000009F
:01006100009E
:01006200009D
:01006300009C
:01006400118A
:010065001189
:010066001188
:010067001187
:010068000097
:010069000096
:01006A000095
:01006B000094
:01006C000093
:01006D001181
:01006E001180
:01006F00117F
:01007000008F
:01007100008E
:01007200008D
:01007300008C
:01007400008B
:01007500008A
:010076001178
:010077001177
:010078000087
:010079000086
:01007A000085
:01007B000084
:01007C000083
:01007D000082
:01007E000081
:01007F00116F
:01008000116E
:01008100116D
:01008200116C
:01008300116B
:01008400116A
:010085001169
:010086001168
:010087001167
:010088000077
:010089001165
:01008A001164
:01008B001163
:01008C001162
:01008D001161
:01008E001160
:01008F00115F
:01009000006F
:01009100006E
:01009200115C
:01009300115B
:01009400115A
:010095001159
:010096001158
:010097001157
:010098000067
:010099000066
:01009A000065
:01009B001153
:01009C001152
:01009D001151
:01009E001150
:01009F00114F
:0100A000005F
:0100A100005E
:0100A200005D
:0100A300005C
:0100A400114A
:0100A5001149
:0100A6001148
:0100A7001147
:0100A8000057
:0100A9000056
:0100AA000055
:0100AB000054
:0100AC000053
:0100AD001141
:0100AE001140
:0100AF00113F
:0100B000004F
:0100B100004E
:0100B200004D
:0100B300004C
:0100B400004B
:0100B500004A
:0100B6001138
:0100B7001137
:0100B8000047
:0100B9000046
:0100BA000045
:0100BB000044
:0100BC000043
:0100BD000042
:0100BE000041
:0100BF00112F
:0100C000112E
:0100C100112D
:0100C200112C
:0100C300112B
:0100C400112A
:0100C5001129
:0100C6001128
:0100C7001127
:0100C8000037
:0100C9001125
:0100CA001124
:0100CB001123
:0100CC001122
:0100CD001121
:0100CE001120
:0100CF00111F
:0100D000002F
:0100D100002E
:0100D200111C
:0100D300111B
:0100D400111A
:0100D5001119
:0100D6001118
:0100D7001117
:0100D8000027
:0100D9000026
:0100DA000025
:0100DB001113
:0100DC001112
:0100DD001111
:0100DE001110
:0100DF00110F
:0100E000001F
:0100E100001E
:0100E200001D
:0100E300001C
:0100E400110A
:0100E5001109
:0100E6001108
:0100E7001107
:0100E8000017
:0100E9000016
:0100EA000015
:0100EB000014
:0100EC000013
:0100ED001101
:0100EE001100
:0100EF0011FF
:0100F000000F
:0100F100000E
:0100F200000D
:0100F300000C
:0100F400000B
:0100F500000A
:0100F60011F8
:0100F70011F7
:0100F8000007
:0100F9000006
:0100FA000005
:0100FB000004
:0100FC000003
:0100FD000002
:0100FE000001
:0100FF0011EF
:00000001FF
